:030000000201B842
:0C01B800787FE4F6D8FD75810F0201FF8E
:100462001203681203FA1202F112000E1200E38064
:01047200F594
:1003AE00EF1FAC0670011E4C6010900009E004F0C7
:0A03BE0070EE900008E004F080E605
:0103C8002212
:0803410090000AEEF0A3EFF0BA
:10034900E4FBFAD390000BE09B90000AE09A400E80
:0E0359007FDE7E011203AE0BBB00010A80E5C1
:010367002273
:10043C00AE071FEE600DE4FCFD0DED70010C4C6081
:03044C00EF80F648
:01044F00228A
:0D047300E4F5C7F5C5F5C675C380F5C422D4
:1003E20075C78375C5018FC4EEF5C375C65A75C648
:0703F200A500AFC212047365
:0103F90022E1
:1003C90075C78375C5028FC4EEF5C3AF058FC275B6
:0903D900C65A75C6A500020473A2
:1004270075C78375C5038FC4EEF5C375C65A75C600
:05043700A500020473A2
:03000B0002029B53
:10029B00C0E0C0F0C083C082C0D075D008758A673B
:1002AB00758CFC90000C74FFF5F012041145F07086
:1002BB002A90000CF0A37409F0900003E004F07096
:1002CB0006900002E004F0900005E004F070069048
:1002DB000004E004F0120244120450D0D0D082D0BB
:0602EB0083D0F0D0E032E8
:1003FA00758901758A67758CFCD28CD2A9D2AFE453
:07040A0090000CF0A3F022AA
:04038F0041000E001B
:1002440090000EE014601714602114603C240370C5
:100254004430850320863F90000E7401F0223085DF
:100264000320862B90000E7402F022208508900053
:1002740001E0700204F0208609900001E07003742C
:1002840003F090000E7403F02230850A308607E4F0
:0702940090000EF022002291
:100393004100010041000600410007004200020045
:0A03A3000042000400004100006465
:10045000208409308706209103309005E490000144
:02046000F02288
:1002F100120450900001E014601814601F1460246F
:1003010014603024047037120368E4900006F0A3EF
:10031100F0229000067401F0C2A48010900006E063
:10032100701D80159000077401F0C2A5900001E0D6
:1003310004F022900007E07006900001F0220022F4
:10000E00900006E0B4070040030200E1900021F8E2
:10001E0028287302003602003E020079020089028F
:10002E0000A40200B60200D4E4900002F0A3F02275
:10003E00900000E0FFD3900003E09F900002E09458
:10004E000050030200E220B20BE4F0A3F090000691
:10005E007405F02220830EE4900002F0A3F09000CD
:10006E00067403F022C2EBC2B58054208366D2EB35
:10007E00D2B5E4900002F0A3F08044900000E0FFBF
:10008E00D3900003E09F900002E094004046C2B778
:10009E00D2A1C2A3802920B23BD2B7C2A0D2A3E480
:1000AE00900002F0A3F08017900000E0FFD39000C4
:1000BE0003E09F900002E094004019C2EAC2B4909F
:1000CE000006E004F02230820BD2EAD2B4E49000B3
:0500DE0006F0220022E3
:1000E300900007E0B4070040030201B69000F6F861
:1000F30028287302010B02011302014E02015E0262
:10010300017902018B0201A9E4900004F0A3F0221B
:10011300900000E0FFD3900005E09F900004E0947E
:100123000050030201B720B30BE4F0A3F0900007E3
:100133007405F02220830EE4900004F0A3F09000F5
:10014300077403F022C2EBC2B48054208366D2EB5F
:10015300D2B4E4900004F0A3F08044900000E0FFE8
:10016300D3900005E09F900004E094004046C2B69F
:10017300D2A0C2A2802920B33BD2B6C2A1D2A2E4AC
:10018300900004F0A3F08017900000E0FFD39000EC
:1001930005E09F900004E094004019C2EAC2B590C4
:1001A3000007E004F02230820BD2EAD2B5E49000DB
:0501B30007F02200220C
:10036800D2EAD2EBD2B4D2B5D2B6D2B730B204C246
:10037800A08002D2A030B304C2A18002D2A1D2A22E
:07038800D2A3D2A4D2A522EA
:1001C400020462E493A3F8E493A34003F68001F2EB
:1001D40008DFF48029E493A3F85407240CC8C3333C
:1001E400C4540F4420C8834004F456800146F6DF0B
:1001F400E4800B010204081020408090038FE47E09
:10020400019360BCA3FF543F30E509541FFEE493FF
:10021400A360010ECF54C025E060A840B8E493A3C6
:10022400FAE493A3F8E493A3C8C582C8CAC583CAF1
:10023400F0A3C8C582C8CAC583CADFE9DEE780BEA9
:0103AD00004F
:10041100A3F8E0C5F025F0F0E5821582700215839E
:06042100E0C838F0E822FB
:00000001FF
