:0300000002019664
:0C019600787FE4F6D8FD75810F0201DDD2
:100440001203461203D81202CF12000E1200D280FD
:01045000F5B6
:10038C00EF1FAC0670011E4C6010900009E004F0E9
:0A039C0070EE900008E004F080E627
:0103A6002234
:08031F0090000AEEF0A3EFF0DC
:10032700E4FBFAD390000BE09B90000AE09A400EA2
:0E0337007FDE7E0112038C0BBB00010A80E505
:010345002295
:10041A00AE071FEE600DE4FCFD0DED70010C4C60A3
:03042A00EF80F66A
:01042D0022AC
:0D045100E4F5C7F5C5F5C675C380F5C422F6
:1003C00075C78375C5018FC4EEF5C375C65A75C66A
:0703D000A500AFC2120451A9
:0103D7002203
:1003A70075C78375C5028FC4EEF5C3AF058FC275D8
:0903B700C65A75C6A500020451E6
:1004050075C78375C5038FC4EEF5C375C65A75C622
:05041500A500020451E6
:03000B0002027975
:10027900C0E0C0F0C083C082C0D075D008758A675D
:10028900758CFC90000C74FFF5F01203EF45F070CB
:100299002A90000CF0A37409F0900003E004F070B8
:1002A90006900002E004F0900005E004F07006906A
:1002B9000004E004F012022212042ED0D0D082D021
:0602C90083D0F0D0E0320A
:1003D800758901758A67758CFCD28CD2A9D2AFE475
:0703E80090000CF0A3F022CD
:04036D0041000E003D
:1002220090000EE014601714602114603C240370E7
:100232004430850320863F90000E7401F022308501
:100242000320862B90000E7402F022208508900075
:1002520001E0700204F0208609900001E07003744E
:1002620003F090000E7403F02230850A308607E412
:0702720090000EF0220022B3
:100371004100010041000600410007004200020067
:0A0381000042000400004100006487
:10042E00208409308706209103309005E490000166
:02043E00F022AA
:1002CF0012042E900001E014601814601F146024B3
:1002DF0014603024047037120346E4900006F0A334
:1002EF00F0229000067401F0C2A48010900006E086
:1002FF00701D80159000077401F0C2A5900001E0F9
:10030F0004F022900007E07006900001F022002216
:10000E00900006E0B4070040030200D0900021F8F3
:10001E0028287302003602003E02006802007802B1
:10002E0000930200A50200C3E4900002F0A3F022A8
:10003E00900000E0FFD3900003E09F900002E09458
:10004E000050030200D120830BE4F0A3F0900006D1
:10005E007403F022C2EBC2B58054208366D2EBD279
:10006E00B5E4900002F0A3F08044900000E0FFD3CE
:10007E00900003E09F900002E094004046C2B7D289
:10008E00A1C2A3802920B23BD2B7C2A0D2A3E490D2
:10009E000002F0A3F08017900000E0FFD390000361
:1000AE00E09F900002E094004019C2EAC2B49000B2
:1000BE0006E004F02230820BD2EAD2B4E4900006BD
:0400CE00F0220022FA
:1000D200900007E0B4070040030201949000E5F8A5
:1000E2002828730200FA02010202012C02013C02DA
:1000F2000157020169020187E4900004F0A3F02293
:10010200900000E0FFD3900005E09F900004E0948F
:1001120000500302019520830BE4F0A3F090000746
:100122007403F022C2EBC2B48054208366D2EBD2B5
:10013200B4E4900004F0A3F08044900000E0FFD308
:10014200900005E09F900004E094004046C2B6D2C1
:10015200A0C2A2802920B33BD2B6C2A1D2A2E4900F
:100162000004F0A3F08017900000E0FFD390000598
:10017200E09F900004E094004019C2EAC2B59000EA
:1001820007E004F02230820BD2EAD2B5E4900007F5
:04019200F022002235
:10034600D2EAD2EBD2B4D2B5D2B6D2B730B204C268
:10035600A08002D2A030B304C2A18002D2A1D2A250
:07036600D2A3D2A4D2A5220C
:1001A200020440E493A3F8E493A34003F68001F22F
:1001B20008DFF48029E493A3F85407240CC8C3335E
:1001C200C4540F4420C8834004F456800146F6DF2D
:1001D200E4800B010204081020408090036DE47E4D
:1001E200019360BCA3FF543F30E509541FFEE49322
:1001F200A360010ECF54C025E060A840B8E493A3E9
:10020200FAE493A3F8E493A3C8C582C8CAC583CA13
:10021200F0A3C8C582C8CAC583CADFE9DEE780BECB
:01038B000071
:1003EF00A3F8E0C5F025F0F0E582158270021583C1
:0603FF00E0C838F0E8221E
:00000001FF
