:0300000002015C9E
:0C015C00787FE4F6D8FD75810F0201A346
:0B040D0012030712036412029080FB30
:10032E00EF1FAC0670011E4C6010900008E004F048
:0A033E0070EE900007E004F080E686
:010348002292
:0802E000900009EEF0A3EFF01D
:1002E800E4FBFAD390000AE09B900009E09A400EE4
:0E02F8007FDE7E0112032E0BBB00010A80E5A3
:0103060022D4
:1003DA00AE071FEE600DE4FCFD0DED70010C4C60E4
:0303EA00EF80F6AB
:0103ED0022ED
:0D040000E4F5C7F5C5F5C675C380F5C42247
:1003970075C78375C5018FC4EEF5C375C65A75C693
:0703A700A500AFC212040023
:0103AE00222C
:10037E0075C78375C5028FC4EEF5C3AF058FC27501
:09038E00C65A75C6A50002040060
:1003C50075C78375C5038FC4EEF5C375C65A75C663
:0503D500A50002040078
:03000B000201E807
:1001E800C0E0C0F0C083C082C0D075D008758ACD89
:1001F800758CD490000B74FFF5F01203AF45F070C6
:100208002A90000BF0A37409F0900002E004F0704B
:1002180006900001E004F0900004E004F0700690FD
:100228000003E004F012023E1203EED0D0D082D0D8
:0602380083D0F0D0E0329B
:10036400758E80758901758ACD758CD4D28CD2A98D
:0A037400D2AFE490000BF0A3F022DA
:0403490041000D0062
:10023E0090000DE0146017146021146037240370D1
:10024E003F20850330863A90000D7401F022208500
:10025E000330862690000D7402F022308506900041
:10026E00007401F03086069000007403F090000DCB
:10027E007403F02220850A208607E490000DF022F8
:02028E0000224C
:10034D00410000004100050041000600420001008F
:06035D0000420003000055
:1003EE00308409208706309103209005E4900000A8
:0203FE00F022EB
:100290001203EE900000E014601814601F14602434
:1002A00014603024047037120307E4900005F0A3B3
:1002B000F0229000057401F0D2A48010900005E0B7
:1002C000701D80159000067401F0D2A5900000E02A
:1002D00004F022900006E07006900000F022002258
:10000E00900005E0B4070040030200B3900021F811
:10001E0028287302003602003E02005302006302DB
:10002E00007A02008C0200A6E4900001F0A3F022F8
:10003E00D3900002E09464900001E094004067D2F7
:10004E00EBD2B5804C30835EC2EBC2B5E4900001BA
:10005E00F0A3F0803CD3900002E09464900001E0A5
:10006E0094004042D2B7C2A1D2A3802530B237C28B
:10007E00B7D2A0C2A3E4900001F0A3F08013D390F6
:10008E000002E09464900001E094004019D2EAD29C
:10009E00B4900005E004F02220820BC2EAC2B4E460
:0700AE00900005F022002282
:1000B500900006E0B40700400302015A9000C8F81A
:1000C5002828730200DD0200E50200FA02010A0297
:1000D500012102013302014DE4900003F0A3F02257
:1000E500D3900004E09464900003E094004067D24C
:1000F500EBD2B4804C30835EC2EBC2B4E490000313
:10010500F0A3F0803CD3900004E09464900003E0F9
:1001150094004042D2B6C2A0D2A2802530B337C2E5
:10012500B6D2A1C2A2E4900003F0A3F08013D3904D
:100135000004E09464900003E094004019D2EAD2F0
:10014500B5900006E004F02220820BC2EAC2B5E4B5
:07015500900006F0220022D9
:10030700C2EAC2EBC2B4C2B5C2B6C2B730B204D2F7
:10031700A08002C2A030B304D2A18002C2A1C2A2AF
:07032700C2A3C2A4C2A5227B
:1001680002040DE493A3F8E493A34003F68001F29C
:1001780008DFF48029E493A3F85407240CC8C33398
:10018800C4540F4420C8834004F456800146F6DF67
:10019800E4800B0102040810204080900349E47EAB
:1001A800019360BCA3FF543F30E509541FFEE4935C
:1001B800A360010ECF54C025E060A840B8E493A323
:1001C800FAE493A3F8E493A3C8C582C8CAC583CA4E
:1001D800F0A3C8C582C8CAC583CADFE9DEE780BE06
:010363000099
:1003AF00A3F8E0C5F025F0F0E58215827002158301
:0603BF00E0C838F0E8225E
:00000001FF
