:0300000002000EED
:0C000E00787FE4F6D8FD75810F020055E4
:0500030012015380FE14
:10013800EF1FAC0670011E4C6010900001E004F047
:0A01480070EE900000E004F080E685
:01015200228A
:08011100900002EEF0A3EFF0F4
:10011900E4FBFAD3900003E09B900002E09A400EC2
:0E0129007FDE7E011201380BBB00010A80E56B
:0101370022A5
:1001C900AE071FEE600DE4FCFD0DED70010C4C60F7
:0301D900EF80F6BE
:0101DC002200
:0D01DD00E4F5C7F5C5F5C675C380F5C4226D
:1001860075C78375C5018FC4EEF5C375C65A75C6A6
:07019600A500AFC21201DD5C
:01019D00223F
:10016D0075C78375C5028FC4EEF5C3AF058FC27514
:09017D00C65A75C6A5000201DD99
:1001B40075C78375C5038FC4EEF5C375C65A75C676
:0501C400A5000201DDB1
:03000B000200DA16
:1000DA00C0E0C0F0C083C082C0D075D008758ACD98
:1000EA00758CD490000474FFF5F012019E45F070EF
:1000FA000B900004F0A37409F012009AD0D0D082B9
:07010A00D083D0F0D0E032F9
:10015300758E80758901758ACD758CD4D28CD2A9A0
:0A016300D2AFE4900004F0A3F022F4
:0401EA0041000800C8
:10009A00900008E01460171460211460252403708E
:1000AA002D2085033086289000087401F0222085CF
:1000BA00033086149000087402F02290000874033A
:1000CA00F02220850A208607E4900008F022002208
:0801EE00410006144100071452
:0D01F700900006E060061460038000002206
:0D020400900007E0600614600380000022F7
:10001A00020003E493A3F8E493A34003F68001F2F9
:10002A0008DFF48029E493A3F85407240CC8C333E7
:10003A00C4540F4420C8834004F456800146F6DFB6
:10004A00E4800B01020408102040809001EAE47E5B
:10005A00019360BCA3FF543F30E509541FFEE493AB
:10006A00A360010ECF54C025E060A840B8E493A372
:10007A00FAE493A3F8E493A3C8C582C8CAC583CA9D
:10008A00F0A3C8C582C8CAC583CADFE9DEE780BE55
:0101F6000008
:10019E00A3F8E0C5F025F0F0E58215827002158314
:0601AE00E0C838F0E82271
:00000001FF
