:030000000207688C
:0C076800787FE4F6D8FD7581200207AF11
:030003000206D121
:1006D100C0E0C0F0C083C082C0D075D000C000C0EF
:1006E10001C002C003C004C005C006C00720A41B8E
:1006F100E4FFFEFDFC900000E0F8A3E0F9A3E0FABE
:10070100A3E0FBD312019240438022900026E0FC3B
:10071100A3E0FDA3E0FEA3E0FF900000E0F8A3E06A
:10072100F9A3E0FAA3E0FBD3120192501F9000005D
:10073100E0FCA3E0FDA3E0FEA3E02401FFE43EFE14
:10074100E43DFDE43CFC9000001201A3D007D0067B
:10075100D005D004D003D002D001D000D0D0D082B7
:07076100D083D0F0D0E0329C
:070B2400D288D2A8D2AF2253
:1001E000900020E0FCA3E0FD7F017E00120A1D903C
:1001F000001AE0FCA3E0FD7F037E00120A1D9000C0
:1002000004E0FCA3E0FD7F057E00120A1D900006BD
:10021000E0FCA3E0FD7F077E00120A1D900008E0CD
:10022000FCA3E0FD7F097E00120A1D90000AE0FC9D
:10023000A3E0FD7F0B7E00120A1D90000CE0FCA3E2
:10024000E0FD7F0D7E00120A1D90000EE0FCA3E091
:10025000FD7F0F7E00120A1D900010E0FCA3E0FD60
:100260007F117E00120A1D900012E0FCA3E0FD7FCA
:10027000137E00120A1D900014E0FCA3E0FD7F1520
:100280007E00120A1D900016E0FCA3E0FD7F177EA1
:1002900000120A1D900018E0FCA3E0FD7F197E000B
:1002A000120A1D90001CE07002A3E0700D90002C5B
:1002B000E07002A3E07003FD802E90001CE070024D
:1002C000A3E0700E90002CE07002A3E060047D01BA
:1002D000801B90001CE07002A3E0600F90002CE0F7
:1002E0007002A3E070057D02FC80057D037C00E4C4
:1002F000FFFE120A1D900024E0FCA3E0FD7F1B7EA0
:1003000000120A1D90002AE0FCA3E0FD7F1D7E0084
:10031000120A1D90001EE0FCA3E0FD7F1F7E00126C
:100320000A1D900022E0FCA3E0FD7F217E00020A6E
:010330001DAF
:10063300120B24120AFF1207F4900020E0FEA3E03D
:10064300FFE4FCFD7BFF7AFFF9F8120075E47BE819
:100653007A03F9F8120977EF2430FFEE34F8FEED50
:1006630034FFFDEC34FFFC9000261201A3E47FE885
:100673007E03FDFC900000E0F8A3E0F9A3E0FAA3F9
:10068300E0FB120075C006C007900020E0FEA3E067
:10069300FBAA06E4F9F8D007D00612010090001E69
:1006A300EEF0A3EFF01201E0300002C200B2A73077
:1006B300830A90002CE4F0A304F08007E490002C5C
:0E06C300F0A3F0120866120559120474809F0D
:100A7000EF1FAC0670011E4C6010900048E004F0BF
:0A0A800070EE900047E004F080E6FD
:010A8A002249
:080A4900900049EEF0A3EFF06C
:100A5100E4FBFAD390004AE09B900049E09A400EF3
:0E0A61007FDE7E01120A700BBB00010A80E5E9
:010A6F002264
:020006007F0178
:0100080022D5
:1007F400E490001CF0A3F090002CF0A3F0900020F3
:100804007403F0A374E8F090001AE4F0A37464F0A5
:10081400E4900004F0A3F0A3F0A3F0A3F0A3F0A3EA
:10082400F0A3F0A3F0A3F0A3F0A3F0A3F0A3F0A32C
:10083400F0A3F0A3F0A3F0A3F0A3F0A3F0A3F0902F
:100844000024F0A3F090002AF0A3F090001EF0A37F
:10085400F0900022F0A3F09000001201AF0000001D
:02086400002270
:020B2B007F0148
:010B2D0022A5
:100AEB00AE071FEE600DE4FCFD0DED70010C4C60CC
:030AFB00EF80F693
:010AFE0022D5
:0D0B0E00E4F5C7F5C5F5C675C380F5C42232
:100ABE0075C78375C5018FC4EEF5C375C65A75C665
:070ACE00A500AFC2120B0EE0
:010AD50022FE
:100AA50075C78375C5028FC4EEF5C3AF058FC275D3
:090AB500C65A75C6A500020B0E1D
:100AD60075C78375C5038FC4EEF5C375C65A75C64B
:050AE600A500020B0E4B
:10000E00C1004F0030FFFFFFFFFFFFFFFFFFFFFFAD
:10001E00FFFFFFFF41003F0041002F0041002E0077
:0F0AFF00759A50759CFD758E1475AF01D2AF229C
:030043000209EEC1
:1009EE00C0E0C0F0C083C082C0D075D008E59A3098
:1009FE00E008539AFEAF9B1208D3E59A30E10553F7
:0F0A0E009AFDC201D0D0D082D083D0F0D0E03298
:090B1B002001FDEFD201F59B223F
:1009BB00900044EBF0A3EAF0A3E9F0900044E0FBD5
:1009CB00A3E0FAA3E0F91200466017900044A3E4F9
:1009DB0075F00112005FA9F0FA120046FF120B1B13
:0309EB0080D9228E
:100A1D00AB07AA067F5A120B1B7FA5120B1B7F0576
:100A2D00120B1B7F82120B1BEAFF120B1BAF031263
:0C0A3D000B1BECFF120B1BAF05020B1B88
:1008D30090003FE01460111460161460222403702A
:1008E30043EF645A70448010EFB4A502800A803548
:1008F30090002EEFF0E4A3F090003FE004F022908C
:10090300002FE02430F582E43400F583EFF090000B
:100913002FE004F090002EE0FFA3E0C39F400B12F2
:0B0923000331800100E490003FF0224F
:10033100900034E0FEA3E0FDEDFF90004DEEF0A350
:10034100EFF0900032E0B4013F90004DE0FEA3E0F9
:10035100FF900020EEF0A3EFF0E4FCFD7BFF7AFFBD
:10036100F9F8120075E47BE87A03F9F8120977EFDE
:100371002430FFEE34F8FEED34FFFDEC34FFFC9049
:1003810000261201A3020471900032E0FFB4030DB4
:1003910090004DE0FDA3E090001A020457EFB40570
:1003A1000D90004DE0FFA3E090000402043E900098
:1003B10032E0FFB4070D90004DE0FDA3E090000690
:1003C100020457EFB4090C90004DE0FFA3E0900048
:1003D10008806A900032E0FFB40B0C90004DE0FD04
:1003E100A3E090000A806FEFB40D0C90004DE0FF88
:1003F100A3E090000C8046900032E0FFB40F0C9017
:10040100004DE0FDA3E090000E804BEFB4110C9085
:10041100004DE0FFA3E09000108022900032E0FF49
:10042100B4130C90004DE0FDA3E09000128027EF83
:10043100B4151190004DE0FFA3E0900014CFF0A39C
:10044100EFF0802C900032E0FFB4171190004DE0E6
:10045100FDA3E0900016CDF0A3EDF08013EFB419E9
:100461000F90004DE0FFA3E0900018CFF0A3EFF054
:02047100D200B7
:010473002266
:03000B0002092EB9
:10092E00C0E0C0F0C083C082C0D075D008758ACD3B
:10093E00758CD490004B74FFF5F012005F45F0708B
:10094E001D90004BF0A37409F0B2A790002CE43078
:10095E008306F0A304F08003F0A3F0120866D0D053
:09096E00D082D083D0F0D0E03239
:100A8B00758E80758901758ACD758CD4D28CD2A95F
:0A0A9B00D2AFE490004BF0A3F0226C
:04002E0041004F003E
:1008660090004FE014601A14602714604F24037040
:100876005A30820630840320855290004F7401F06E
:100886002230820630840320853B90004F7402F0AC
:100896002220821790002CE07002A3E0600D9000E9
:1008A6001CE4F0A304F0E4900041F0208407E490F7
:1008B600001CF0A3F090004F7403F02230820D303C
:0D08C600840A308507E490004FF0220022E4
:100032004100411441004314410042144100401464
:10055900900041E014602F146066146077147003F2
:100569000205FD24046003020631E4900042F0E034
:1005790025E025E0240CF582E43400F583A3E0901E
:100589000040F0A3806A900042E0FF25E025E024C6
:100599000CF582E43400F583E0FCA3E04C601AEF2B
:1005A90025E025E0240AF582E43400F583E0FEA382
:1005B900E04E600590004180379000417404F022BC
:1005C900E4900043F09000001201AF000000009099
:1005D9000041801C900043E06414704D900040E09D
:1005E90014F0E0D394004005A37402F02290004176
:1005F900E004F022900042E004F0E0FF25E025E06D
:10060900240CF582E43400F583A3E0900040F0EF78
:10061900C394045005A37401F0229000417414F0AE
:0A062900E490001CF0A3F022002270
:10047400900043E014602714605B147003020515B8
:1004840014700302054114700302054D2405600332
:10049400020557D295D296C290D29102054490009B
:1004A40042E025E025E0240AF582E43400F583E007
:1004B400FEA3E07803CEC313CE13D8F9FDAC06D364
:1004C40090001FE09D90001EE09C5003020558D24E
:1004D40090C295806D900042E025E025E0240AF565
:1004E40082E43400F583E0FCA3E0FDAE047803CE9F
:1004F400C313CE13D8F9FFC3ED9FFDEC9EFCD3903C
:10050400001FE09D90001EE09C4049C290D295805F
:1005140031900042E025E025E0240AF582E434002D
:10052400F583E0FEA3E0FFD390001FE09F90001E40
:10053400E09E4020D29020801BC29480052081142C
:10054400D294900043E004F0222080089000437489
:0405540014F022007D
:010558002280
:10077400020633E493A3F8E493A34003F68001F262
:1007840008DFF48029E493A3F85407240CC8C33386
:10079400C4540F4420C8834004F456800146F6DF55
:1007A400E4800B010204081020408090000EE47ED7
:1007B400019360BCA3FF543F30E509541FFEE4934A
:1007C400A360010ECF54C025E060A840B8E493A311
:1007D400FAE493A3F8E493A3C8C582C8CAC583CA3C
:1007E400F0A3C8C582C8CAC583CADFE9DEE780BEF4
:0100420000BD
:10004600BB010689828A83E0225002E722BBFE02B8
:09005600E32289828A83E49322EB
:10005F00A3F8E0C5F025F0F0E58215827002158354
:06006F00E0C838F0E822B1
:10007500E88FF0A4CC8BF0A42CFCE98EF0A42CFC2A
:100085008AF0EDA42CFCEA8EF0A4CDA8F08BF0A4A8
:100095002DCC3825F0FDE98FF0A42CCD35F0FCEB07
:1000A5008EF0A4FEA9F0EB8FF0A4CFC5F02ECD39CC
:0F00B500FEE43CFCEAA42DCE35F0FDE43CFC2239
:1000C40075F008758200EF2FFFEE33FECD33CDCCF3
:1000D40033CCC58233C5829BED9AEC99E582984076
:1000E4000CF582EE9BFEED9AFDEC99FC0FD5F0D653
:1000F400E4CEFBE4CDFAE4CCF9A88222B800C1B97D
:100104000059BA002DEC8BF084CFCECDFCE5F0CBBA
:10011400F97818EF2FFFEE33FEED33FDEC33FCEBF3
:1001240033FB10D703994004EB99FB0FD8E5E4F9AE
:10013400FA227818EF2FFFEE33FEED33FDEC33FC9B
:10014400C933C910D7059BE99A4007EC9BFCE99A8F
:10015400F90FD8E0E4C9FAE4CCFB2275F010EF2FD4
:10016400FFEE33FEED33FDCC33CCC833C810D707D4
:100174009BEC9AE899400AED9BFDEC9AFCE899F80F
:0E0184000FD5F0DAE4CDFBE4CCFAE4C8F922A2
:10097700C2D5E830E70FB2D5E4C39BFBE49AFAE4AB
:1009870099F9E498F8EC30E717B2D51209AD1201DE
:1009970000E4C39BFBE49AFAE499F9E498F880032E
:1009A70012010030D50DE4C39FFFE49EFEE49DFDD8
:0409B700E49CFC229E
:10019200EB9FF5F0EA9E42F0E99D42F0E89C45F0C3
:0101A200223A
:0C01A300ECF0A3EDF0A3EEF0A3EFF022CF
:1001AF00A8828583F0D083D0821201C61201C612B5
:1001BF0001C61201C6E473E493A3C583C5F0C583DA
:1001CF00C8C582C8F0A3C583C5F0C583C8C582C89A
:0101DF0022FD
:00000001FF
